{
  "_format": "hh-sol-artifact-1",
  "contractName": "VintageVault",
  "sourceName": "contracts/VintageVault.sol",
  "abi": [
    {
      "inputs": [],
      "stateMutability": "nonpayable",
      "type": "constructor"
    },
    {
      "anonymous": false,
      "inputs": [
        {
          "indexed": true,
          "internalType": "address",
          "name": "owner",
          "type": "address"
        },
        {
          "indexed": true,
          "internalType": "address",
          "name": "approved",
          "type": "address"
        },
        {
          "indexed": true,
          "internalType": "uint256",
          "name": "tokenId",
          "type": "uint256"
        }
      ],
      "name": "Approval",
      "type": "event"
    },
    {
      "anonymous": false,
      "inputs": [
        {
          "indexed": true,
          "internalType": "address",
          "name": "owner",
          "type": "address"
        },
        {
          "indexed": true,
          "internalType": "address",
          "name": "operator",
          "type": "address"
        },
        {
          "indexed": false,
          "internalType": "bool",
          "name": "approved",
          "type": "bool"
        }
      ],
      "name": "ApprovalForAll",
      "type": "event"
    },
    {
      "anonymous": false,
      "inputs": [
        {
          "indexed": false,
          "internalType": "uint256",
          "name": "_fromTokenId",
          "type": "uint256"
        },
        {
          "indexed": false,
          "internalType": "uint256",
          "name": "_toTokenId",
          "type": "uint256"
        }
      ],
      "name": "BatchMetadataUpdate",
      "type": "event"
    },
    {
      "anonymous": false,
      "inputs": [
        {
          "indexed": false,
          "internalType": "uint256",
          "name": "_tokenId",
          "type": "uint256"
        }
      ],
      "name": "MetadataUpdate",
      "type": "event"
    },
    {
      "anonymous": false,
      "inputs": [
        {
          "indexed": false,
          "internalType": "uint256",
          "name": "tokenID",
          "type": "uint256"
        },
        {
          "indexed": false,
          "internalType": "address",
          "name": "from",
          "type": "address"
        },
        {
          "indexed": false,
          "internalType": "address",
          "name": "to",
          "type": "address"
        },
        {
          "indexed": false,
          "internalType": "string",
          "name": "tokenURI",
          "type": "string"
        },
        {
          "indexed": false,
          "internalType": "uint256",
          "name": "price",
          "type": "uint256"
        }
      ],
      "name": "NFTTransfer",
      "type": "event"
    },
    {
      "anonymous": false,
      "inputs": [
        {
          "indexed": true,
          "internalType": "address",
          "name": "from",
          "type": "address"
        },
        {
          "indexed": true,
          "internalType": "address",
          "name": "to",
          "type": "address"
        },
        {
          "indexed": true,
          "internalType": "uint256",
          "name": "tokenId",
          "type": "uint256"
        }
      ],
      "name": "Transfer",
      "type": "event"
    },
    {
      "inputs": [
        {
          "internalType": "uint256",
          "name": "",
          "type": "uint256"
        }
      ],
      "name": "_listings",
      "outputs": [
        {
          "internalType": "uint256",
          "name": "price",
          "type": "uint256"
        },
        {
          "internalType": "address",
          "name": "seller",
          "type": "address"
        },
        {
          "internalType": "address",
          "name": "owner",
          "type": "address"
        },
        {
          "internalType": "uint256",
          "name": "tokenID",
          "type": "uint256"
        }
      ],
      "stateMutability": "view",
      "type": "function"
    },
    {
      "inputs": [],
      "name": "_tokenIDs",
      "outputs": [
        {
          "internalType": "uint256",
          "name": "_value",
          "type": "uint256"
        }
      ],
      "stateMutability": "view",
      "type": "function"
    },
    {
      "inputs": [
        {
          "internalType": "address",
          "name": "to",
          "type": "address"
        },
        {
          "internalType": "uint256",
          "name": "tokenId",
          "type": "uint256"
        }
      ],
      "name": "approve",
      "outputs": [],
      "stateMutability": "nonpayable",
      "type": "function"
    },
    {
      "inputs": [
        {
          "internalType": "address",
          "name": "owner",
          "type": "address"
        }
      ],
      "name": "balanceOf",
      "outputs": [
        {
          "internalType": "uint256",
          "name": "",
          "type": "uint256"
        }
      ],
      "stateMutability": "view",
      "type": "function"
    },
    {
      "inputs": [
        {
          "internalType": "uint256",
          "name": "_tokenID",
          "type": "uint256"
        }
      ],
      "name": "buyNFT",
      "outputs": [],
      "stateMutability": "payable",
      "type": "function"
    },
    {
      "inputs": [
        {
          "internalType": "uint256",
          "name": "_tokenID",
          "type": "uint256"
        }
      ],
      "name": "cancelListing",
      "outputs": [],
      "stateMutability": "nonpayable",
      "type": "function"
    },
    {
      "inputs": [
        {
          "internalType": "uint256",
          "name": "_tokenID",
          "type": "uint256"
        },
        {
          "internalType": "address",
          "name": "_owner",
          "type": "address"
        }
      ],
      "name": "clearListing",
      "outputs": [],
      "stateMutability": "nonpayable",
      "type": "function"
    },
    {
      "inputs": [
        {
          "internalType": "string",
          "name": "tokenURI",
          "type": "string"
        }
      ],
      "name": "createNFT",
      "outputs": [],
      "stateMutability": "nonpayable",
      "type": "function"
    },
    {
      "inputs": [
        {
          "internalType": "string",
          "name": "_cid",
          "type": "string"
        },
        {
          "internalType": "address",
          "name": "_userId",
          "type": "address"
        }
      ],
      "name": "createUser",
      "outputs": [],
      "stateMutability": "nonpayable",
      "type": "function"
    },
    {
      "inputs": [
        {
          "internalType": "address",
          "name": "_userID",
          "type": "address"
        }
      ],
      "name": "dashBoard",
      "outputs": [
        {
          "components": [
            {
              "internalType": "string",
              "name": "cid",
              "type": "string"
            }
          ],
          "internalType": "struct User",
          "name": "",
          "type": "tuple"
        }
      ],
      "stateMutability": "view",
      "type": "function"
    },
    {
      "inputs": [
        {
          "internalType": "uint256",
          "name": "tokenId",
          "type": "uint256"
        }
      ],
      "name": "getApproved",
      "outputs": [
        {
          "internalType": "address",
          "name": "",
          "type": "address"
        }
      ],
      "stateMutability": "view",
      "type": "function"
    },
    {
      "inputs": [
        {
          "internalType": "address",
          "name": "_user",
          "type": "address"
        }
      ],
      "name": "getListedRelics",
      "outputs": [
        {
          "components": [
            {
              "internalType": "uint256",
              "name": "price",
              "type": "uint256"
            },
            {
              "internalType": "address",
              "name": "seller",
              "type": "address"
            },
            {
              "internalType": "address",
              "name": "owner",
              "type": "address"
            },
            {
              "internalType": "uint256",
              "name": "tokenID",
              "type": "uint256"
            }
          ],
          "internalType": "struct NFTListing[]",
          "name": "",
          "type": "tuple[]"
        }
      ],
      "stateMutability": "view",
      "type": "function"
    },
    {
      "inputs": [
        {
          "internalType": "address",
          "name": "_user",
          "type": "address"
        }
      ],
      "name": "getOwnedRelics",
      "outputs": [
        {
          "components": [
            {
              "internalType": "uint256",
              "name": "price",
              "type": "uint256"
            },
            {
              "internalType": "address",
              "name": "seller",
              "type": "address"
            },
            {
              "internalType": "address",
              "name": "owner",
              "type": "address"
            },
            {
              "internalType": "uint256",
              "name": "tokenID",
              "type": "uint256"
            }
          ],
          "internalType": "struct NFTListing[]",
          "name": "",
          "type": "tuple[]"
        }
      ],
      "stateMutability": "view",
      "type": "function"
    },
    {
      "inputs": [
        {
          "internalType": "uint256",
          "name": "_id",
          "type": "uint256"
        }
      ],
      "name": "getRelicData",
      "outputs": [
        {
          "internalType": "string",
          "name": "",
          "type": "string"
        }
      ],
      "stateMutability": "view",
      "type": "function"
    },
    {
      "inputs": [],
      "name": "getVaultRelics",
      "outputs": [
        {
          "components": [
            {
              "internalType": "uint256",
              "name": "price",
              "type": "uint256"
            },
            {
              "internalType": "address",
              "name": "seller",
              "type": "address"
            },
            {
              "internalType": "address",
              "name": "owner",
              "type": "address"
            },
            {
              "internalType": "uint256",
              "name": "tokenID",
              "type": "uint256"
            }
          ],
          "internalType": "struct NFTListing[]",
          "name": "",
          "type": "tuple[]"
        }
      ],
      "stateMutability": "view",
      "type": "function"
    },
    {
      "inputs": [
        {
          "internalType": "address",
          "name": "owner",
          "type": "address"
        },
        {
          "internalType": "address",
          "name": "operator",
          "type": "address"
        }
      ],
      "name": "isApprovedForAll",
      "outputs": [
        {
          "internalType": "bool",
          "name": "",
          "type": "bool"
        }
      ],
      "stateMutability": "view",
      "type": "function"
    },
    {
      "inputs": [
        {
          "internalType": "uint256",
          "name": "_tokenID",
          "type": "uint256"
        },
        {
          "internalType": "uint256",
          "name": "_price",
          "type": "uint256"
        }
      ],
      "name": "listNFT",
      "outputs": [],
      "stateMutability": "nonpayable",
      "type": "function"
    },
    {
      "inputs": [],
      "name": "name",
      "outputs": [
        {
          "internalType": "string",
          "name": "",
          "type": "string"
        }
      ],
      "stateMutability": "view",
      "type": "function"
    },
    {
      "inputs": [],
      "name": "owner",
      "outputs": [
        {
          "internalType": "address payable",
          "name": "",
          "type": "address"
        }
      ],
      "stateMutability": "view",
      "type": "function"
    },
    {
      "inputs": [
        {
          "internalType": "uint256",
          "name": "tokenId",
          "type": "uint256"
        }
      ],
      "name": "ownerOf",
      "outputs": [
        {
          "internalType": "address",
          "name": "",
          "type": "address"
        }
      ],
      "stateMutability": "view",
      "type": "function"
    },
    {
      "inputs": [
        {
          "internalType": "address",
          "name": "from",
          "type": "address"
        },
        {
          "internalType": "address",
          "name": "to",
          "type": "address"
        },
        {
          "internalType": "uint256",
          "name": "tokenId",
          "type": "uint256"
        }
      ],
      "name": "safeTransferFrom",
      "outputs": [],
      "stateMutability": "nonpayable",
      "type": "function"
    },
    {
      "inputs": [
        {
          "internalType": "address",
          "name": "from",
          "type": "address"
        },
        {
          "internalType": "address",
          "name": "to",
          "type": "address"
        },
        {
          "internalType": "uint256",
          "name": "tokenId",
          "type": "uint256"
        },
        {
          "internalType": "bytes",
          "name": "data",
          "type": "bytes"
        }
      ],
      "name": "safeTransferFrom",
      "outputs": [],
      "stateMutability": "nonpayable",
      "type": "function"
    },
    {
      "inputs": [
        {
          "internalType": "address",
          "name": "operator",
          "type": "address"
        },
        {
          "internalType": "bool",
          "name": "approved",
          "type": "bool"
        }
      ],
      "name": "setApprovalForAll",
      "outputs": [],
      "stateMutability": "nonpayable",
      "type": "function"
    },
    {
      "inputs": [
        {
          "internalType": "bytes4",
          "name": "interfaceId",
          "type": "bytes4"
        }
      ],
      "name": "supportsInterface",
      "outputs": [
        {
          "internalType": "bool",
          "name": "",
          "type": "bool"
        }
      ],
      "stateMutability": "view",
      "type": "function"
    },
    {
      "inputs": [],
      "name": "symbol",
      "outputs": [
        {
          "internalType": "string",
          "name": "",
          "type": "string"
        }
      ],
      "stateMutability": "view",
      "type": "function"
    },
    {
      "inputs": [
        {
          "internalType": "uint256",
          "name": "tokenId",
          "type": "uint256"
        }
      ],
      "name": "tokenURI",
      "outputs": [
        {
          "internalType": "string",
          "name": "",
          "type": "string"
        }
      ],
      "stateMutability": "view",
      "type": "function"
    },
    {
      "inputs": [
        {
          "internalType": "address",
          "name": "from",
          "type": "address"
        },
        {
          "internalType": "address",
          "name": "to",
          "type": "address"
        },
        {
          "internalType": "uint256",
          "name": "tokenId",
          "type": "uint256"
        }
      ],
      "name": "transferFrom",
      "outputs": [],
      "stateMutability": "nonpayable",
      "type": "function"
    },
    {
      "inputs": [
        {
          "internalType": "address",
          "name": "",
          "type": "address"
        }
      ],
      "name": "users",
      "outputs": [
        {
          "internalType": "string",
          "name": "cid",
          "type": "string"
        }
      ],
      "stateMutability": "view",
      "type": "function"
    },
    {
      "inputs": [],
      "name": "withdrawFunds",
      "outputs": [],
      "stateMutability": "nonpayable",
      "type": "function"
    }
  ],
  "bytecode": "0x60806040523480156200001157600080fd5b506040518060400160405280600b81526020016a159a5b9d1859d9535a5b9d60aa1b815250604051806040016040528060038152602001622b2a2b60e91b815250816000908162000063919062000132565b50600162000072828262000132565b5050600880546001600160a01b0319163317905550620001fe565b634e487b7160e01b600052604160045260246000fd5b600181811c90821680620000b857607f821691505b602082108103620000d957634e487b7160e01b600052602260045260246000fd5b50919050565b601f8211156200012d57600081815260208120601f850160051c81016020861015620001085750805b601f850160051c820191505b81811015620001295782815560010162000114565b5050505b505050565b81516001600160401b038111156200014e576200014e6200008d565b62000166816200015f8454620000a3565b84620000df565b602080601f8311600181146200019e5760008415620001855750858301515b600019600386901b1c1916600185901b17855562000129565b600085815260208120601f198616915b82811015620001cf57888601518255948401946001909101908401620001ae565b5085821015620001ee5787850151600019600388901b60f8161c191681555b5050505050600190811b01905550565b612996806200020e6000396000f3fe6080604052600436106101c25760003560e01c806382f81860116100f7578063bc237f7411610095578063df76dbc911610064578063df76dbc914610509578063e985e9c514610588578063f555ffb4146105a8578063f7cb59ff146105c857600080fd5b8063bc237f7414610489578063c87b56dd146104a9578063da2ed03e146104c9578063db517d79146104e957600080fd5b806395d89b41116100d157806395d89b4114610414578063a22cb46514610429578063a87430ba14610449578063b88d4fde1461046957600080fd5b806382f81860146103b25780638da5cb5b146103d457806394383f14146103f457600080fd5b80633e4d14041161016457806351ed82881161013e57806351ed82881461033f57806356841393146103525780636352211e1461037257806370a082311461039257600080fd5b80633e4d1404146102cd5780633f9bbc4f146102fa57806342842e0e1461031f57600080fd5b8063095ea7b3116101a0578063095ea7b31461025657806323b872dd1461027857806324600fc314610298578063305a67a8146102ad57600080fd5b806301ffc9a7146101c757806306fdde03146101fc578063081812fc1461021e575b600080fd5b3480156101d357600080fd5b506101e76101e23660046120fd565b6105e8565b60405190151581526020015b60405180910390f35b34801561020857600080fd5b50610211610613565b6040516101f3919061216a565b34801561022a57600080fd5b5061023e61023936600461217d565b6106a5565b6040516001600160a01b0390911681526020016101f3565b34801561026257600080fd5b506102766102713660046121b2565b6106cc565b005b34801561028457600080fd5b506102766102933660046121dc565b6107e6565b3480156102a457600080fd5b50610276610817565b3480156102b957600080fd5b506102766102c836600461217d565b6108e0565b3480156102d957600080fd5b506102ed6102e8366004612218565b610a3e565b6040516101f39190612233565b34801561030657600080fd5b506007546103119081565b6040519081526020016101f3565b34801561032b57600080fd5b5061027661033a3660046121dc565b610b07565b61027661034d36600461217d565b610b22565b34801561035e57600080fd5b5061027661036d36600461224e565b610ce2565b34801561037e57600080fd5b5061023e61038d36600461217d565b610d23565b34801561039e57600080fd5b506103116103ad366004612218565b610d83565b3480156103be57600080fd5b506103c7610e09565b6040516101f3919061227a565b3480156103e057600080fd5b5060085461023e906001600160a01b031681565b34801561040057600080fd5b5061027661040f3660046122ea565b610f86565b34801561042057600080fd5b50610211611085565b34801561043557600080fd5b5061027661044436600461230c565b611094565b34801561045557600080fd5b50610211610464366004612218565b61109f565b34801561047557600080fd5b506102766104843660046123d4565b61113d565b34801561049557600080fd5b506103c76104a4366004612218565b611175565b3480156104b557600080fd5b506102116104c436600461217d565b6112f6565b3480156104d557600080fd5b506102766104e4366004612450565b611406565b3480156104f557600080fd5b5061021161050436600461217d565b61150e565b34801561051557600080fd5b5061055861052436600461217d565b600960205260009081526040902080546001820154600283015460039093015491926001600160a01b039182169291169084565b6040516101f394939291909384526001600160a01b03928316602085015291166040830152606082015260800190565b34801561059457600080fd5b506101e76105a33660046124c2565b611519565b3480156105b457600080fd5b506102766105c33660046124ec565b611547565b3480156105d457600080fd5b506103c76105e3366004612218565b611586565b60006001600160e01b03198216632483248360e11b148061060d575061060d82611730565b92915050565b60606000805461062290612545565b80601f016020809104026020016040519081016040528092919081815260200182805461064e90612545565b801561069b5780601f106106705761010080835404028352916020019161069b565b820191906000526020600020905b81548152906001019060200180831161067e57829003601f168201915b5050505050905090565b60006106b082611780565b506000908152600460205260409020546001600160a01b031690565b60006106d782610d23565b9050806001600160a01b0316836001600160a01b0316036107495760405162461bcd60e51b815260206004820152602160248201527f4552433732313a20617070726f76616c20746f2063757272656e74206f776e656044820152603960f91b60648201526084015b60405180910390fd5b336001600160a01b038216148061076557506107658133611519565b6107d75760405162461bcd60e51b815260206004820152603d60248201527f4552433732313a20617070726f76652063616c6c6572206973206e6f7420746f60448201527f6b656e206f776e6572206f7220617070726f76656420666f7220616c6c0000006064820152608401610740565b6107e183836117e2565b505050565b6107f03382611850565b61080c5760405162461bcd60e51b81526004016107409061257f565b6107e18383836118ae565b47806108655760405162461bcd60e51b815260206004820152601a60248201527f4e46544d61726b65743a2062616c616e6365206973207a65726f0000000000006044820152606401610740565b6008546001600160a01b031633146108af5760405162461bcd60e51b815260206004820152600d60248201526c1058d8d95cdcc811195b9a5959609a1b6044820152606401610740565b604051339082156108fc029083906000818181858888f193505050501580156108dc573d6000803e3d6000fd5b5050565b6000818152600960209081526040918290208251608081018452815480825260018301546001600160a01b039081169483019490945260028301549093169381019390935260030154606083015261094a5760405162461bcd60e51b8152600401610740906125cc565b60208101516001600160a01b031633146109a65760405162461bcd60e51b815260206004820181905260248201527f4e46544d61726b65743a20796f75277265206e6f74207468652073656c6c65726044820152606401610740565b6040516323b872dd60e01b8152306004820181905233602483015260448201849052906323b872dd90606401600060405180830381600087803b1580156109ec57600080fd5b505af1158015610a00573d6000803e3d6000fd5b50505050610a0e8233610ce2565b6000805160206129418339815191528230336000604051610a32949392919061260e565b60405180910390a15050565b6040805160208082018352606082526001600160a01b0384166000908152600a8252839020835191820190935282549192909182908290610a7e90612545565b80601f0160208091040260200160405190810160405280929190818152602001828054610aaa90612545565b8015610af75780601f10610acc57610100808354040283529160200191610af7565b820191906000526020600020905b815481529060010190602001808311610ada57829003601f168201915b5050505050815250509050919050565b6107e18383836040518060200160405280600081525061113d565b6000818152600960209081526040918290208251608081018452815480825260018301546001600160a01b0390811694830194909452600283015490931693810193909352600301546060830152610b8c5760405162461bcd60e51b8152600401610740906125cc565b8051610ba090670de0b6b3a7640000612658565b3414610bee5760405162461bcd60e51b815260206004820152601a60248201527f4e46544d61726b65743a20696e636f72726563742070726963650000000000006044820152606401610740565b6040516323b872dd60e01b8152306004820181905233602483015260448201849052906323b872dd90606401600060405180830381600087803b158015610c3457600080fd5b505af1158015610c48573d6000803e3d6000fd5b50505050610c568233610ce2565b80602001516001600160a01b03166108fc610c956064610c8f605f8660000151670de0b6b3a7640000610c899190612658565b90611a12565b90611a25565b6040518115909202916000818181858888f19350505050158015610cbd573d6000803e3d6000fd5b506000805160206129418339815191528230336000604051610a32949392919061260e565b60009182526009602052604082209182556001820180546001600160a01b0319908116909155600290920180549092166001600160a01b0391909116179055565b6000818152600260205260408120546001600160a01b03168061060d5760405162461bcd60e51b8152602060048201526018602482015277115490cdcc8c4e881a5b9d985b1a59081d1bdad95b88125160421b6044820152606401610740565b60006001600160a01b038216610ded5760405162461bcd60e51b815260206004820152602960248201527f4552433732313a2061646472657373207a65726f206973206e6f7420612076616044820152683634b21037bbb732b960b91b6064820152608401610740565b506001600160a01b031660009081526003602052604090205490565b6060600080610e1760075490565b905060015b818111610e6657600081815260096020526040902060020154306001600160a01b0390911603610e545782610e508161266f565b9350505b80610e5e8161266f565b915050610e1c565b5060008267ffffffffffffffff811115610e8257610e82612348565b604051908082528060200260200182016040528015610ebb57816020015b610ea86120ad565b815260200190600190039081610ea05790505b509050600060015b838111610f7c57600081815260096020526040902060020154306001600160a01b0390911603610f6a5760008181526009602090815260409182902082516080810184528154815260018201546001600160a01b039081169382019390935260028201549092169282019290925260039091015460608201528351849084908110610f5057610f50612688565b60200260200101819052508180610f669061266f565b9250505b80610f748161266f565b915050610ec3565b5090949350505050565b60008111610fe65760405162461bcd60e51b815260206004820152602760248201527f4e46544d61726b65743a207072696365206d75737420626520677265617465726044820152660207468616e20360cc1b6064820152608401610740565b610ff13330846107e6565b60408051608081018252828152336020808301828152308486018181526060860189815260008a81526009909552938790209551865591516001860180546001600160a01b03199081166001600160a01b039384161790915592516002870180549094169116179091559051600390930192909255915160008051602061294183398151915292610a32928692869061260e565b60606001805461062290612545565b6108dc338383611a31565b600a602052600090815260409020805481906110ba90612545565b80601f01602080910402602001604051908101604052809291908181526020018280546110e690612545565b80156111335780601f1061110857610100808354040283529160200191611133565b820191906000526020600020905b81548152906001019060200180831161111657829003601f168201915b5050505050905081565b6111473383611850565b6111635760405162461bcd60e51b81526004016107409061257f565b61116f84848484611aff565b50505050565b6060600061118260075490565b9050600060015b8281116111d4576000818152600960205260409020600201546001600160a01b038087169116036111c257816111be8161266f565b9250505b806111cc8161266f565b915050611189565b5060008167ffffffffffffffff8111156111f0576111f0612348565b60405190808252806020026020018201604052801561122957816020015b6112166120ad565b81526020019060019003908161120e5790505b509050600060015b8481116112eb576000818152600960205260409020600201546001600160a01b038089169116036112d95760008181526009602090815260409182902082516080810184528154815260018201546001600160a01b0390811693820193909352600282015490921692820192909252600390910154606082015283518490849081106112bf576112bf612688565b602002602001018190525081806112d59061266f565b9250505b806112e38161266f565b915050611231565b509095945050505050565b606061130182611780565b6000828152600660205260408120805461131a90612545565b80601f016020809104026020016040519081016040528092919081815260200182805461134690612545565b80156113935780601f1061136857610100808354040283529160200191611393565b820191906000526020600020905b81548152906001019060200180831161137657829003601f168201915b5050505050905060006113b160408051602081019091526000815290565b905080516000036113c3575092915050565b8151156113f55780826040516020016113dd92919061269e565b60405160208183030381529060405292505050919050565b6113fe84611b32565b949350505050565b611414600780546001019055565b600061141f60075490565b905061142b3382611ba5565b61146b8184848080601f016020809104026020016040519081016040528093929190818152602001838380828437600092019190915250611bbf92505050565b6040805160808101825260008082526020808301828152338486018181526060860188815288865260099094528685209551865591516001860180546001600160a01b03199081166001600160a01b0393841617909155925160028701805490941691161790915590516003909301929092559151600080516020612941833981519152926115019285928890889084906126cd565b60405180910390a1505050565b606061060d826112f6565b6001600160a01b03918216600090815260056020908152604080832093909416825291909152205460ff1690565b60408051602080820183528482526001600160a01b0384166000908152600a909152919091208151829190819061157e908261276d565b505050505050565b6060600061159360075490565b9050600060015b8281116115ff576000818152600960205260409020600101546001600160a01b0386811691161480156115da575060008181526009602052604090205415155b156115ed57816115e98161266f565b9250505b806115f78161266f565b91505061159a565b5060008167ffffffffffffffff81111561161b5761161b612348565b60405190808252806020026020018201604052801561165457816020015b6116416120ad565b8152602001906001900390816116395790505b509050600060015b8481116112eb576000818152600960205260409020600101546001600160a01b03888116911614801561169c575060008181526009602052604090205415155b1561171e5760008181526009602090815260409182902082516080810184528154815260018201546001600160a01b03908116938201939093526002820154909216928201929092526003909101546060820152835184908490811061170457611704612688565b6020026020010181905250818061171a9061266f565b9250505b806117288161266f565b91505061165c565b60006001600160e01b031982166380ac58cd60e01b148061176157506001600160e01b03198216635b5e139f60e01b145b8061060d57506301ffc9a760e01b6001600160e01b031983161461060d565b6000818152600260205260409020546001600160a01b03166117df5760405162461bcd60e51b8152602060048201526018602482015277115490cdcc8c4e881a5b9d985b1a59081d1bdad95b88125160421b6044820152606401610740565b50565b600081815260046020526040902080546001600160a01b0319166001600160a01b038416908117909155819061181782610d23565b6001600160a01b03167f8c5be1e5ebec7d5bd14f71427d1e84f3dd0314c0f7b2291e5b200ac8c7c3b92560405160405180910390a45050565b60008061185c83610d23565b9050806001600160a01b0316846001600160a01b0316148061188357506118838185611519565b806113fe5750836001600160a01b031661189c846106a5565b6001600160a01b031614949350505050565b826001600160a01b03166118c182610d23565b6001600160a01b0316146118e75760405162461bcd60e51b81526004016107409061282d565b6001600160a01b0382166119495760405162461bcd60e51b8152602060048201526024808201527f4552433732313a207472616e7366657220746f20746865207a65726f206164646044820152637265737360e01b6064820152608401610740565b826001600160a01b031661195c82610d23565b6001600160a01b0316146119825760405162461bcd60e51b81526004016107409061282d565b600081815260046020908152604080832080546001600160a01b03199081169091556001600160a01b0387811680865260038552838620805460001901905590871680865283862080546001019055868652600290945282852080549092168417909155905184937fddf252ad1be2c89b69c2b068fc378daa952ba7f163c4a11628f55a4df523b3ef91a4505050565b6000611a1e8284612658565b9392505050565b6000611a1e8284612872565b816001600160a01b0316836001600160a01b031603611a925760405162461bcd60e51b815260206004820152601960248201527f4552433732313a20617070726f766520746f2063616c6c6572000000000000006044820152606401610740565b6001600160a01b03838116600081815260056020908152604080832094871680845294825291829020805460ff191686151590811790915591519182527f17307eab39ab6107e8899845ad3d59bd9653f200f220920489ca2b5937696c31910160405180910390a3505050565b611b0a8484846118ae565b611b1684848484611c83565b61116f5760405162461bcd60e51b815260040161074090612894565b6060611b3d82611780565b6000611b5460408051602081019091526000815290565b90506000815111611b745760405180602001604052806000815250611a1e565b80611b7e84611d84565b604051602001611b8f92919061269e565b6040516020818303038152906040529392505050565b6108dc828260405180602001604052806000815250611e17565b6000828152600260205260409020546001600160a01b0316611c3a5760405162461bcd60e51b815260206004820152602e60248201527f45524337323155524953746f726167653a2055524920736574206f66206e6f6e60448201526d32bc34b9ba32b73a103a37b5b2b760911b6064820152608401610740565b6000828152600660205260409020611c52828261276d565b506040518281527ff8e1a15aba9398e019f0b49df1a4fde98ee17ae345cb5f6b5e2c27f5033e8ce790602001610a32565b60006001600160a01b0384163b15611d7957604051630a85bd0160e11b81526001600160a01b0385169063150b7a0290611cc79033908990889088906004016128e6565b6020604051808303816000875af1925050508015611d02575060408051601f3d908101601f19168201909252611cff91810190612923565b60015b611d5f573d808015611d30576040519150601f19603f3d011682016040523d82523d6000602084013e611d35565b606091505b508051600003611d575760405162461bcd60e51b815260040161074090612894565b805181602001fd5b6001600160e01b031916630a85bd0160e11b1490506113fe565b506001949350505050565b60606000611d9183611e4a565b600101905060008167ffffffffffffffff811115611db157611db1612348565b6040519080825280601f01601f191660200182016040528015611ddb576020820181803683370190505b5090508181016020015b600019016f181899199a1a9b1b9c1cb0b131b232b360811b600a86061a8153600a8504945084611de557509392505050565b611e218383611f22565b611e2e6000848484611c83565b6107e15760405162461bcd60e51b815260040161074090612894565b60008072184f03e93ff9f4daa797ed6e38ed64bf6a1f0160401b8310611e895772184f03e93ff9f4daa797ed6e38ed64bf6a1f0160401b830492506040015b6d04ee2d6d415b85acef81000000008310611eb5576d04ee2d6d415b85acef8100000000830492506020015b662386f26fc100008310611ed357662386f26fc10000830492506010015b6305f5e1008310611eeb576305f5e100830492506008015b6127108310611eff57612710830492506004015b60648310611f11576064830492506002015b600a831061060d5760010192915050565b6001600160a01b038216611f785760405162461bcd60e51b815260206004820181905260248201527f4552433732313a206d696e7420746f20746865207a65726f20616464726573736044820152606401610740565b6000818152600260205260409020546001600160a01b031615611fdd5760405162461bcd60e51b815260206004820152601c60248201527f4552433732313a20746f6b656e20616c7265616479206d696e746564000000006044820152606401610740565b6000818152600260205260409020546001600160a01b0316156120425760405162461bcd60e51b815260206004820152601c60248201527f4552433732313a20746f6b656e20616c7265616479206d696e746564000000006044820152606401610740565b6001600160a01b038216600081815260036020908152604080832080546001019055848352600290915280822080546001600160a01b0319168417905551839291907fddf252ad1be2c89b69c2b068fc378daa952ba7f163c4a11628f55a4df523b3ef908290a45050565b60405180608001604052806000815260200160006001600160a01b0316815260200160006001600160a01b03168152602001600081525090565b6001600160e01b0319811681146117df57600080fd5b60006020828403121561210f57600080fd5b8135611a1e816120e7565b60005b8381101561213557818101518382015260200161211d565b50506000910152565b6000815180845261215681602086016020860161211a565b601f01601f19169290920160200192915050565b602081526000611a1e602083018461213e565b60006020828403121561218f57600080fd5b5035919050565b80356001600160a01b03811681146121ad57600080fd5b919050565b600080604083850312156121c557600080fd5b6121ce83612196565b946020939093013593505050565b6000806000606084860312156121f157600080fd5b6121fa84612196565b925061220860208501612196565b9150604084013590509250925092565b60006020828403121561222a57600080fd5b611a1e82612196565b60208152600082516020808401526113fe604084018261213e565b6000806040838503121561226157600080fd5b8235915061227160208401612196565b90509250929050565b602080825282518282018190526000919060409081850190868401855b828110156122dd57815180518552868101516001600160a01b03908116888701528682015116868601526060908101519085015260809093019290850190600101612297565b5091979650505050505050565b600080604083850312156122fd57600080fd5b50508035926020909101359150565b6000806040838503121561231f57600080fd5b61232883612196565b91506020830135801515811461233d57600080fd5b809150509250929050565b634e487b7160e01b600052604160045260246000fd5b600067ffffffffffffffff8084111561237957612379612348565b604051601f8501601f19908116603f011681019082821181831017156123a1576123a1612348565b816040528093508581528686860111156123ba57600080fd5b858560208301376000602087830101525050509392505050565b600080600080608085870312156123ea57600080fd5b6123f385612196565b935061240160208601612196565b925060408501359150606085013567ffffffffffffffff81111561242457600080fd5b8501601f8101871361243557600080fd5b6124448782356020840161235e565b91505092959194509250565b6000806020838503121561246357600080fd5b823567ffffffffffffffff8082111561247b57600080fd5b818501915085601f83011261248f57600080fd5b81358181111561249e57600080fd5b8660208285010111156124b057600080fd5b60209290920196919550909350505050565b600080604083850312156124d557600080fd5b6124de83612196565b915061227160208401612196565b600080604083850312156124ff57600080fd5b823567ffffffffffffffff81111561251657600080fd5b8301601f8101851361252757600080fd5b6125368582356020840161235e565b92505061227160208401612196565b600181811c9082168061255957607f821691505b60208210810361257957634e487b7160e01b600052602260045260246000fd5b50919050565b6020808252602d908201527f4552433732313a2063616c6c6572206973206e6f7420746f6b656e206f776e6560408201526c1c881bdc88185c1c1c9bdd9959609a1b606082015260800190565b60208082526022908201527f4e46544d61726b65743a206e6674206e6f74206c697374656420666f722073616040820152616c6560f01b606082015260800190565b9384526001600160a01b0392831660208501529116604083015260a060608301819052600090830152608082015260c00190565b634e487b7160e01b600052601160045260246000fd5b808202811582820484141761060d5761060d612642565b60006001820161268157612681612642565b5060010190565b634e487b7160e01b600052603260045260246000fd5b600083516126b081846020880161211a565b8351908301906126c481836020880161211a565b01949350505050565b8681526001600160a01b0386811660208301528516604082015260a06060820181905281018390526000838560c0840137600060c0858401015260c0601f19601f8601168301019050826080830152979650505050505050565b601f8211156107e157600081815260208120601f850160051c8101602086101561274e5750805b601f850160051c820191505b8181101561157e5782815560010161275a565b815167ffffffffffffffff81111561278757612787612348565b61279b816127958454612545565b84612727565b602080601f8311600181146127d057600084156127b85750858301515b600019600386901b1c1916600185901b17855561157e565b600085815260208120601f198616915b828110156127ff578886015182559484019460019091019084016127e0565b508582101561281d5787850151600019600388901b60f8161c191681555b5050505050600190811b01905550565b60208082526025908201527f4552433732313a207472616e736665722066726f6d20696e636f72726563742060408201526437bbb732b960d91b606082015260800190565b60008261288f57634e487b7160e01b600052601260045260246000fd5b500490565b60208082526032908201527f4552433732313a207472616e7366657220746f206e6f6e20455243373231526560408201527131b2b4bb32b91034b6b83632b6b2b73a32b960711b606082015260800190565b6001600160a01b03858116825284166020820152604081018390526080606082018190526000906129199083018461213e565b9695505050505050565b60006020828403121561293557600080fd5b8151611a1e816120e756fe705332a8918666802fc1504f63ff1f002a5f6cedd30d59ad7ae0b5281aeb8dcaa2646970667358221220ff98d0ea0e20a55c39086221bb8e6d4d129b46c72850b211896db960fabd521764736f6c63430008130033",
  "linkReferences": {},
  "deployedLinkReferences": {}
}